{
    "address": "0x23C8D3925af4e736CdA92EE9f134ad6115c250a3",
    "abi": [
        {
            "inputs": [
                {
                    "internalType": "address",
                    "name": "_owner",
                    "type": "address"
                },
                {
                    "internalType": "address",
                    "name": "_nft",
                    "type": "address"
                }
            ],
            "stateMutability": "nonpayable",
            "type": "constructor"
        },
        {
            "anonymous": false,
            "inputs": [
                {
                    "indexed": true,
                    "internalType": "uint128",
                    "name": "nftId",
                    "type": "uint128"
                },
                {
                    "indexed": true,
                    "internalType": "address",
                    "name": "disputer",
                    "type": "address"
                },
                {
                    "indexed": false,
                    "internalType": "bool",
                    "name": "isBuyer",
                    "type": "bool"
                }
            ],
            "name": "DisputeOpened",
            "type": "event"
        },
        {
            "anonymous": false,
            "inputs": [
                {
                    "indexed": true,
                    "internalType": "uint128",
                    "name": "nftId",
                    "type": "uint128"
                },
                {
                    "indexed": false,
                    "internalType": "bool",
                    "name": "voteForBuyer",
                    "type": "bool"
                }
            ],
            "name": "DisputeResolved",
            "type": "event"
        },
        {
            "anonymous": false,
            "inputs": [
                {
                    "indexed": true,
                    "internalType": "uint128",
                    "name": "nftId",
                    "type": "uint128"
                },
                {
                    "indexed": true,
                    "internalType": "address",
                    "name": "resolver",
                    "type": "address"
                },
                {
                    "indexed": false,
                    "internalType": "bool",
                    "name": "voteForBuyer",
                    "type": "bool"
                }
            ],
            "name": "DisputeVoted",
            "type": "event"
        },
        {
            "anonymous": false,
            "inputs": [
                {
                    "indexed": true,
                    "internalType": "uint128",
                    "name": "nftId",
                    "type": "uint128"
                },
                {
                    "indexed": true,
                    "internalType": "address",
                    "name": "confirmer",
                    "type": "address"
                },
                {
                    "indexed": false,
                    "internalType": "bool",
                    "name": "isBuyer",
                    "type": "bool"
                }
            ],
            "name": "ItemDelivered",
            "type": "event"
        },
        {
            "anonymous": false,
            "inputs": [
                {
                    "indexed": true,
                    "internalType": "uint128",
                    "name": "nftId",
                    "type": "uint128"
                },
                {
                    "indexed": true,
                    "internalType": "address",
                    "name": "lister",
                    "type": "address"
                },
                {
                    "indexed": false,
                    "internalType": "uint128",
                    "name": "price",
                    "type": "uint128"
                }
            ],
            "name": "Listed",
            "type": "event"
        },
        {
            "anonymous": false,
            "inputs": [
                {
                    "indexed": true,
                    "internalType": "uint128",
                    "name": "nftId",
                    "type": "uint128"
                },
                {
                    "indexed": true,
                    "internalType": "address",
                    "name": "buyer",
                    "type": "address"
                },
                {
                    "indexed": false,
                    "internalType": "uint128",
                    "name": "price",
                    "type": "uint128"
                }
            ],
            "name": "PaymentReceived",
            "type": "event"
        },
        {
            "anonymous": false,
            "inputs": [
                {
                    "indexed": true,
                    "internalType": "uint128",
                    "name": "nftId",
                    "type": "uint128"
                },
                {
                    "indexed": true,
                    "internalType": "address",
                    "name": "seller",
                    "type": "address"
                },
                {
                    "indexed": false,
                    "internalType": "uint256",
                    "name": "amount",
                    "type": "uint256"
                }
            ],
            "name": "PaymentWithdrawn",
            "type": "event"
        },
        {
            "anonymous": false,
            "inputs": [
                {
                    "indexed": true,
                    "internalType": "address",
                    "name": "resolver",
                    "type": "address"
                },
                {
                    "indexed": false,
                    "internalType": "uint256",
                    "name": "amount",
                    "type": "uint256"
                }
            ],
            "name": "ResolverRewardClaimed",
            "type": "event"
        },
        {
            "anonymous": false,
            "inputs": [
                {
                    "indexed": false,
                    "internalType": "string",
                    "name": "tokenType",
                    "type": "string"
                },
                {
                    "indexed": false,
                    "internalType": "address",
                    "name": "oldAddress",
                    "type": "address"
                },
                {
                    "indexed": false,
                    "internalType": "address",
                    "name": "newAddress",
                    "type": "address"
                }
            ],
            "name": "TokenUpdated",
            "type": "event"
        },
        {
            "inputs": [],
            "name": "RESOLUTION_PERIOD",
            "outputs": [
                {
                    "internalType": "uint256",
                    "name": "",
                    "type": "uint256"
                }
            ],
            "stateMutability": "view",
            "type": "function"
        },
        {
            "inputs": [
                {
                    "internalType": "uint256",
                    "name": "",
                    "type": "uint256"
                }
            ],
            "name": "assetIds",
            "outputs": [
                {
                    "internalType": "uint128",
                    "name": "",
                    "type": "uint128"
                }
            ],
            "stateMutability": "view",
            "type": "function"
        },
        {
            "inputs": [
                {
                    "internalType": "uint128",
                    "name": "",
                    "type": "uint128"
                }
            ],
            "name": "assets",
            "outputs": [
                {
                    "internalType": "address",
                    "name": "owner",
                    "type": "address"
                },
                {
                    "internalType": "uint128",
                    "name": "price",
                    "type": "uint128"
                },
                {
                    "internalType": "bool",
                    "name": "payedFor",
                    "type": "bool"
                },
                {
                    "internalType": "bool",
                    "name": "booked",
                    "type": "bool"
                },
                {
                    "internalType": "address",
                    "name": "buyer",
                    "type": "address"
                },
                {
                    "internalType": "bool",
                    "name": "buyerChecked",
                    "type": "bool"
                },
                {
                    "internalType": "bool",
                    "name": "sellerChecked",
                    "type": "bool"
                },
                {
                    "internalType": "bool",
                    "name": "disputed",
                    "type": "bool"
                },
                {
                    "internalType": "address",
                    "name": "store",
                    "type": "address"
                }
            ],
            "stateMutability": "view",
            "type": "function"
        },
        {
            "inputs": [],
            "name": "claimResolverReward",
            "outputs": [],
            "stateMutability": "nonpayable",
            "type": "function"
        },
        {
            "inputs": [
                {
                    "internalType": "uint256",
                    "name": "",
                    "type": "uint256"
                }
            ],
            "name": "disputeIds",
            "outputs": [
                {
                    "internalType": "uint128",
                    "name": "",
                    "type": "uint128"
                }
            ],
            "stateMutability": "view",
            "type": "function"
        },
        {
            "inputs": [
                {
                    "internalType": "uint128",
                    "name": "",
                    "type": "uint128"
                }
            ],
            "name": "disputeStartTime",
            "outputs": [
                {
                    "internalType": "uint256",
                    "name": "",
                    "type": "uint256"
                }
            ],
            "stateMutability": "view",
            "type": "function"
        },
        {
            "inputs": [
                {
                    "internalType": "uint128",
                    "name": "",
                    "type": "uint128"
                }
            ],
            "name": "disputes",
            "outputs": [
                {
                    "internalType": "uint256",
                    "name": "id",
                    "type": "uint256"
                },
                {
                    "internalType": "uint128",
                    "name": "nftId",
                    "type": "uint128"
                },
                {
                    "internalType": "address",
                    "name": "buyer",
                    "type": "address"
                },
                {
                    "internalType": "address",
                    "name": "seller",
                    "type": "address"
                },
                {
                    "internalType": "bool",
                    "name": "resolved",
                    "type": "bool"
                },
                {
                    "internalType": "uint8",
                    "name": "buyerVotes",
                    "type": "uint8"
                },
                {
                    "internalType": "uint8",
                    "name": "sellerVotes",
                    "type": "uint8"
                }
            ],
            "stateMutability": "view",
            "type": "function"
        },
        {
            "inputs": [],
            "name": "getAllDisputes",
            "outputs": [
                {
                    "internalType": "uint128[]",
                    "name": "",
                    "type": "uint128[]"
                }
            ],
            "stateMutability": "view",
            "type": "function"
        },
        {
            "inputs": [
                {
                    "internalType": "address",
                    "name": "resolver",
                    "type": "address"
                }
            ],
            "name": "getAvailableResolverReward",
            "outputs": [
                {
                    "internalType": "uint128",
                    "name": "",
                    "type": "uint128"
                }
            ],
            "stateMutability": "view",
            "type": "function"
        },
        {
            "inputs": [
                {
                    "internalType": "uint128",
                    "name": "nftId",
                    "type": "uint128"
                }
            ],
            "name": "getDisputeData",
            "outputs": [
                {
                    "internalType": "uint256",
                    "name": "",
                    "type": "uint256"
                },
                {
                    "internalType": "uint128",
                    "name": "",
                    "type": "uint128"
                },
                {
                    "internalType": "address",
                    "name": "",
                    "type": "address"
                },
                {
                    "internalType": "address",
                    "name": "",
                    "type": "address"
                },
                {
                    "internalType": "bool",
                    "name": "",
                    "type": "bool"
                },
                {
                    "internalType": "uint128",
                    "name": "",
                    "type": "uint128"
                },
                {
                    "internalType": "uint128",
                    "name": "",
                    "type": "uint128"
                }
            ],
            "stateMutability": "view",
            "type": "function"
        },
        {
            "inputs": [],
            "name": "getTotalGovernanceToken",
            "outputs": [
                {
                    "internalType": "uint256",
                    "name": "",
                    "type": "uint256"
                }
            ],
            "stateMutability": "view",
            "type": "function"
        },
        {
            "inputs": [],
            "name": "getTotaltotalMarketToken",
            "outputs": [
                {
                    "internalType": "uint256",
                    "name": "",
                    "type": "uint256"
                }
            ],
            "stateMutability": "view",
            "type": "function"
        },
        {
            "inputs": [
                {
                    "internalType": "uint256",
                    "name": "start",
                    "type": "uint256"
                },
                {
                    "internalType": "uint256",
                    "name": "end",
                    "type": "uint256"
                }
            ],
            "name": "get_listings",
            "outputs": [
                {
                    "internalType": "uint256[]",
                    "name": "",
                    "type": "uint256[]"
                }
            ],
            "stateMutability": "view",
            "type": "function"
        },
        {
            "inputs": [
                {
                    "internalType": "uint128",
                    "name": "nftId",
                    "type": "uint128"
                }
            ],
            "name": "get_payment",
            "outputs": [],
            "stateMutability": "nonpayable",
            "type": "function"
        },
        {
            "inputs": [
                {
                    "internalType": "uint128",
                    "name": "nftId",
                    "type": "uint128"
                }
            ],
            "name": "get_stock_data",
            "outputs": [
                {
                    "components": [
                        {
                            "internalType": "address",
                            "name": "owner",
                            "type": "address"
                        },
                        {
                            "internalType": "uint128",
                            "name": "price",
                            "type": "uint128"
                        },
                        {
                            "internalType": "bool",
                            "name": "payedFor",
                            "type": "bool"
                        },
                        {
                            "internalType": "bool",
                            "name": "booked",
                            "type": "bool"
                        },
                        {
                            "internalType": "address",
                            "name": "buyer",
                            "type": "address"
                        },
                        {
                            "internalType": "bool",
                            "name": "buyerChecked",
                            "type": "bool"
                        },
                        {
                            "internalType": "bool",
                            "name": "sellerChecked",
                            "type": "bool"
                        },
                        {
                            "internalType": "bool",
                            "name": "disputed",
                            "type": "bool"
                        },
                        {
                            "internalType": "address",
                            "name": "store",
                            "type": "address"
                        }
                    ],
                    "internalType": "struct CropMarketplace.AssetData",
                    "name": "",
                    "type": "tuple"
                }
            ],
            "stateMutability": "view",
            "type": "function"
        },
        {
            "inputs": [
                {
                    "internalType": "uint128",
                    "name": "limit",
                    "type": "uint128"
                },
                {
                    "internalType": "address",
                    "name": "user",
                    "type": "address"
                }
            ],
            "name": "get_user_listing",
            "outputs": [
                {
                    "internalType": "uint128[]",
                    "name": "",
                    "type": "uint128[]"
                }
            ],
            "stateMutability": "view",
            "type": "function"
        },
        {
            "inputs": [
                {
                    "internalType": "uint128",
                    "name": "limit",
                    "type": "uint128"
                },
                {
                    "internalType": "address",
                    "name": "user",
                    "type": "address"
                }
            ],
            "name": "get_user_purchase",
            "outputs": [
                {
                    "internalType": "uint128[]",
                    "name": "",
                    "type": "uint128[]"
                }
            ],
            "stateMutability": "view",
            "type": "function"
        },
        {
            "inputs": [
                {
                    "internalType": "uint128",
                    "name": "",
                    "type": "uint128"
                },
                {
                    "internalType": "address",
                    "name": "",
                    "type": "address"
                }
            ],
            "name": "hasVoted",
            "outputs": [
                {
                    "internalType": "bool",
                    "name": "",
                    "type": "bool"
                }
            ],
            "stateMutability": "view",
            "type": "function"
        },
        {
            "inputs": [
                {
                    "internalType": "address",
                    "name": "",
                    "type": "address"
                }
            ],
            "name": "isResolver",
            "outputs": [
                {
                    "internalType": "bool",
                    "name": "",
                    "type": "bool"
                }
            ],
            "stateMutability": "view",
            "type": "function"
        },
        {
            "inputs": [
                {
                    "internalType": "uint128",
                    "name": "nftId",
                    "type": "uint128"
                },
                {
                    "internalType": "uint128",
                    "name": "price",
                    "type": "uint128"
                },
                {
                    "internalType": "address",
                    "name": "store",
                    "type": "address"
                }
            ],
            "name": "list_for_sale",
            "outputs": [
                {
                    "internalType": "bool",
                    "name": "",
                    "type": "bool"
                }
            ],
            "stateMutability": "nonpayable",
            "type": "function"
        },
        {
            "inputs": [
                {
                    "internalType": "uint128",
                    "name": "nftId",
                    "type": "uint128"
                },
                {
                    "internalType": "bool",
                    "name": "isBuyer",
                    "type": "bool"
                }
            ],
            "name": "mark_as_delivered",
            "outputs": [],
            "stateMutability": "nonpayable",
            "type": "function"
        },
        {
            "inputs": [],
            "name": "minResolvers",
            "outputs": [
                {
                    "internalType": "uint256",
                    "name": "",
                    "type": "uint256"
                }
            ],
            "stateMutability": "view",
            "type": "function"
        },
        {
            "inputs": [],
            "name": "name",
            "outputs": [
                {
                    "internalType": "string",
                    "name": "",
                    "type": "string"
                }
            ],
            "stateMutability": "view",
            "type": "function"
        },
        {
            "inputs": [],
            "name": "nft",
            "outputs": [
                {
                    "internalType": "contract CropNft",
                    "name": "",
                    "type": "address"
                }
            ],
            "stateMutability": "view",
            "type": "function"
        },
        {
            "inputs": [
                {
                    "internalType": "uint128",
                    "name": "nftId",
                    "type": "uint128"
                }
            ],
            "name": "openDispute",
            "outputs": [],
            "stateMutability": "nonpayable",
            "type": "function"
        },
        {
            "inputs": [],
            "name": "owner",
            "outputs": [
                {
                    "internalType": "address",
                    "name": "",
                    "type": "address"
                }
            ],
            "stateMutability": "view",
            "type": "function"
        },
        {
            "inputs": [
                {
                    "internalType": "uint128",
                    "name": "nftId",
                    "type": "uint128"
                }
            ],
            "name": "payForStock",
            "outputs": [
                {
                    "internalType": "bool",
                    "name": "",
                    "type": "bool"
                }
            ],
            "stateMutability": "payable",
            "type": "function"
        },
        {
            "inputs": [],
            "name": "registerResolver",
            "outputs": [],
            "stateMutability": "payable",
            "type": "function"
        },
        {
            "inputs": [
                {
                    "internalType": "uint128",
                    "name": "nftId",
                    "type": "uint128"
                }
            ],
            "name": "resolveDispute",
            "outputs": [],
            "stateMutability": "nonpayable",
            "type": "function"
        },
        {
            "inputs": [
                {
                    "internalType": "address",
                    "name": "",
                    "type": "address"
                }
            ],
            "name": "resolverReward",
            "outputs": [
                {
                    "internalType": "uint128",
                    "name": "",
                    "type": "uint128"
                }
            ],
            "stateMutability": "view",
            "type": "function"
        },
        {
            "inputs": [
                {
                    "internalType": "address",
                    "name": "",
                    "type": "address"
                }
            ],
            "name": "resolverStake",
            "outputs": [
                {
                    "internalType": "uint256",
                    "name": "",
                    "type": "uint256"
                }
            ],
            "stateMutability": "view",
            "type": "function"
        },
        {
            "inputs": [],
            "name": "resolverStakeRequirement",
            "outputs": [
                {
                    "internalType": "uint256",
                    "name": "",
                    "type": "uint256"
                }
            ],
            "stateMutability": "view",
            "type": "function"
        },
        {
            "inputs": [
                {
                    "internalType": "address",
                    "name": "_newNFT",
                    "type": "address"
                }
            ],
            "name": "updateNFTAddress",
            "outputs": [],
            "stateMutability": "nonpayable",
            "type": "function"
        },
        {
            "inputs": [
                {
                    "internalType": "address",
                    "name": "user",
                    "type": "address"
                }
            ],
            "name": "user_govern_data",
            "outputs": [
                {
                    "components": [
                        {
                            "internalType": "bool",
                            "name": "isResolver",
                            "type": "bool"
                        },
                        {
                            "internalType": "uint256",
                            "name": "staked",
                            "type": "uint256"
                        },
                        {
                            "internalType": "uint128",
                            "name": "reward",
                            "type": "uint128"
                        }
                    ],
                    "internalType": "struct CropMarketplace.userGovData",
                    "name": "",
                    "type": "tuple"
                }
            ],
            "stateMutability": "view",
            "type": "function"
        },
        {
            "inputs": [
                {
                    "internalType": "uint128",
                    "name": "nftId",
                    "type": "uint128"
                },
                {
                    "internalType": "bool",
                    "name": "voteForBuyer",
                    "type": "bool"
                }
            ],
            "name": "voteOnDispute",
            "outputs": [],
            "stateMutability": "nonpayable",
            "type": "function"
        },
        {
            "stateMutability": "payable",
            "type": "receive"
        }
    ],
    "transactionHash": "0xd0ef9f98f32483bac51a28d6bb22b6c3f06aa5a73fe9ac9e552538875666be1a",
    "args": [
        "0x19C50Bfd73627B35f2EF3F7B0755229D42cd56a8",
        "0x74b2Af480A9248040560C1e715D61A6766B477d3"
    ],
    "numDeployments": 1,
    "solcInputHash": "d607a9388bc53cd12983b66b38a5f526",
    "bytecode": "0x60e0604052600d60a09081526c446563656e74726153746f726560981b60c0526000906200002e908262000147565b506000600355600060045560058055670de0b6b3a7640000600a553480156200005657600080fd5b506040516200364b3803806200364b833981016040819052620000799162000230565b6001600160a01b03918216608052600180546001600160a01b0319169190921617905562000268565b634e487b7160e01b600052604160045260246000fd5b600181811c90821680620000cd57607f821691505b602082108103620000ee57634e487b7160e01b600052602260045260246000fd5b50919050565b601f8211156200014257600081815260208120601f850160051c810160208610156200011d5750805b601f850160051c820191505b818110156200013e5782815560010162000129565b5050505b505050565b81516001600160401b03811115620001635762000163620000a2565b6200017b81620001748454620000b8565b84620000f4565b602080601f831160018114620001b357600084156200019a5750858301515b600019600386901b1c1916600185901b1785556200013e565b600085815260208120601f198616915b82811015620001e457888601518255948401946001909101908401620001c3565b5085821015620002035787850151600019600388901b60f8161c191681555b5050505050600190811b01905550565b80516001600160a01b03811681146200022b57600080fd5b919050565b600080604083850312156200024457600080fd5b6200024f8362000213565b91506200025f6020840162000213565b90509250929050565b6080516133ab620002a0600039600081816107e501528181611ac701528181612008015281816128590152612d2e01526133ab6000f3fe6080604052600436106102085760003560e01c8063686d1ec011610118578063acc8a85f116100a0578063d29fb13e1161006f578063d29fb13e146108e2578063d2d36d401461090f578063d2f0b0c514610924578063e76e3e8d14610a18578063edae825d14610a4e57600080fd5b8063acc8a85f1461086d578063b43ec95a1461088d578063c295f3bc146108ad578063c65508a1146108c257600080fd5b806387e4be4c116100e757806387e4be4c146107b35780638da5cb5b146107d35780639db9675b146108075780639ea7d5871461081d578063a1345dd41461084d57600080fd5b8063686d1ec0146106f957806371903fbb14610746578063859474831461076657806387541ed61461079357600080fd5b806329583c0f1161019b5780634a4e621b1161016a5780634a4e621b1461056657806350f905941461068c5780635924eec5146106b157806360888e2e146106d1578063613c2c6f146106e657600080fd5b806329583c0f1461042557806329f72ae214610445578063331d4d171461046557806347ccca021461052e57600080fd5b80631dd9997f116101d75780631dd9997f146102c157806321fa9d52146102d6578063277b4b3b146103a157806327985da5146103ce57600080fd5b806306fdde03146102145780630d4800ae1461023f5780630f5c49691461028a57806318e485991461029457600080fd5b3661020f57005b600080fd5b34801561022057600080fd5b50610229610a64565b6040516102369190612dcb565b60405180910390f35b34801561024b57600080fd5b5061027a61025a366004612e4d565b600d60209081526000928352604080842090915290825290205460ff1681565b6040519015158152602001610236565b610292610af2565b005b3480156102a057600080fd5b506102b46102af366004612e4d565b610bd7565b6040516102369190612e84565b3480156102cd57600080fd5b506102b4610d7f565b3480156102e257600080fd5b506103506102f1366004612ed1565b60066020819052600091825260409091208054600182015460028301546003840154939094015491936001600160801b03909116926001600160a01b03918216929181169160ff600160a01b9092048216918181169161010090041687565b604080519788526001600160801b0390961660208801526001600160a01b03948516958701959095529290911660608501521515608084015260ff90811660a08401521660c082015260e001610236565b3480156103ad57600080fd5b506103c16103bc366004612ef3565b610e09565b6040516102369190612f15565b3480156103da57600080fd5b5061040d6103e9366004612f4d565b6001600160a01b03166000908152600960205260409020546001600160801b031690565b6040516001600160801b039091168152602001610236565b34801561043157600080fd5b5061027a610440366004612f6a565b610f53565b34801561045157600080fd5b50610292610460366004612ed1565b61154a565b34801561047157600080fd5b506104e3610480366004612ed1565b6001600160801b0390811660009081526006602081905260409091208054600182015460028301546003840154939094015491959416936001600160a01b0393841693831692600160a01b900460ff908116928181169261010090910490911690565b604080519788526001600160801b0396871660208901526001600160a01b039586169088015293909216606086015215156080850152821660a08401521660c082015260e001610236565b34801561053a57600080fd5b5060015461054e906001600160a01b031681565b6040516001600160a01b039091168152602001610236565b34801561057257600080fd5b5061067f610581366004612ed1565b6040805161012081018252600080825260208201819052918101829052606081018290526080810182905260a0810182905260c0810182905260e08101829052610100810191909152506001600160801b0390811660009081526002602081815260409283902083516101208101855281546001600160a01b03908116825260018301549687169382019390935260ff600160801b87048116151595820195909552600160881b909504841615156060860152918201548082166080860152600160a01b81048416151560a0860152600160a81b81048416151560c0860152600160b01b9004909216151560e0840152600301541661010082015290565b6040516102369190612fb1565b34801561069857600080fd5b506106a362093a8081565b604051908152602001610236565b3480156106bd57600080fd5b506102926106cc366004612ed1565b611884565b3480156106dd57600080fd5b506106a3611ac3565b61027a6106f4366004612ed1565b611b14565b34801561070557600080fd5b50610719610714366004612f4d565b611cc6565b6040805182511515815260208084015190820152918101516001600160801b031690820152606001610236565b34801561075257600080fd5b50610292610761366004613082565b611d83565b34801561077257600080fd5b506106a3610781366004612ed1565b600c6020526000908152604090205481565b34801561079f57600080fd5b5061040d6107ae3660046130ae565b611fc9565b3480156107bf57600080fd5b506102926107ce366004612f4d565b612006565b3480156107df57600080fd5b5061054e7f000000000000000000000000000000000000000000000000000000000000000081565b34801561081357600080fd5b506106a3600a5481565b34801561082957600080fd5b5061027a610838366004612f4d565b60086020526000908152604090205460ff1681565b34801561085957600080fd5b50610292610868366004612ed1565b6120d0565b34801561087957600080fd5b5061040d6108883660046130ae565b6126bd565b34801561089957600080fd5b506102b46108a8366004612e4d565b6126cd565b3480156108b957600080fd5b506106a3612855565b3480156108ce57600080fd5b506102926108dd366004613082565b6128a6565b3480156108ee57600080fd5b506106a36108fd366004612f4d565b600b6020526000908152604090205481565b34801561091b57600080fd5b50610292612afd565b34801561093057600080fd5b506109b561093f366004612ed1565b600260208190526000918252604090912080546001820154928201546003909201546001600160a01b03918216936001600160801b0381169360ff600160801b8304811694600160881b90930481169382841693600160a01b8404831693600160a81b8104841693600160b01b90910416911689565b604080516001600160a01b039a8b1681526001600160801b0390991660208a01529615159688019690965293151560608701529186166080860152151560a0850152151560c0840152151560e08301529190911661010082015261012001610236565b348015610a2457600080fd5b5061040d610a33366004612f4d565b6009602052600090815260409020546001600160801b031681565b348015610a5a57600080fd5b506106a360055481565b60008054610a71906130c7565b80601f0160208091040260200160405190810160405280929190818152602001828054610a9d906130c7565b8015610aea5780601f10610abf57610100808354040283529160200191610aea565b820191906000526020600020905b815481529060010190602001808311610acd57829003601f168201915b505050505081565b3360009081526008602052604090205460ff1615610b4a5760405162461bcd60e51b815260206004820152601060248201526f20a62922a0a22cafa922a9a7a62b22a960811b60448201526064015b60405180910390fd5b600a54341015610b935760405162461bcd60e51b8152602060048201526014602482015273494e53554646494349454e545f42414c414e434560601b6044820152606401610b41565b336000908152600860209081526040808320805460ff19166001179055600a54600b90925282208190556003805491929091610bd0908490613117565b9091555050565b60606000836001600160801b031667ffffffffffffffff811115610bfd57610bfd61312a565b604051908082528060200260200182016040528015610c26578160200160208202803683370190505b5090506000805b600e546001600160801b0382161015610d7357856001600160801b0316816001600160801b03161015610d7357600060026000600e846001600160801b031681548110610c7c57610c7c613140565b6000918252602080832060028304015460019092166010026101000a9091046001600160801b03168352820192909252604001902080549091506001600160a01b0387811691161480610cde575060038101546001600160a01b038781169116145b15610d6057600e826001600160801b031681548110610cff57610cff613140565b90600052602060002090600291828204019190066010029054906101000a90046001600160801b0316848481518110610d3a57610d3a613140565b6001600160801b039092166020928302919091019091015282610d5c81613156565b9350505b5080610d6b8161316f565b915050610c2d565b50909150505b92915050565b60606007805480602002602001604051908101604052809291908181526020018280548015610dff57602002820191906000526020600020906000905b82829054906101000a90046001600160801b03166001600160801b031681526020019060100190602082600f01049283019260010382029150808411610dbc5790505b5050505050905090565b60606000610e178484613195565b67ffffffffffffffff811115610e2f57610e2f61312a565b604051908082528060200260200182016040528015610e58578160200160208202803683370190505b5090506000845b600e5481108015610e6f57508481105b15610d735760026000600e8381548110610e8b57610e8b613140565b6000918252602080832060028304015460019283166010026101000a90046001600160801b03168452830193909352604090910190200154600160801b900460ff16610f4157600e8181548110610ee457610ee4613140565b90600052602060002090600291828204019190066010029054906101000a90046001600160801b03166001600160801b0316838381518110610f2857610f28613140565b602090810291909101015281610f3d81613156565b9250505b80610f4b81613156565b915050610e5f565b600f5460009060ff1615610f795760405162461bcd60e51b8152600401610b41906131a8565b600f805460ff19166001908117909155546040516331a9108f60e11b81526001600160801b038616600482015233916001600160a01b031690636352211e90602401602060405180830381865afa158015610fd8573d6000803e3d6000fd5b505050506040513d601f19601f82011682018060405250810190610ffc91906131d0565b6001600160a01b03161461103e5760405162461bcd60e51b81526020600482015260096024820152681393d517d3d5d3915160ba1b6044820152606401610b41565b336001600160a01b0316826001600160a01b0316638da5cb5b6040518163ffffffff1660e01b8152600401602060405180830381865afa158015611086573d6000803e3d6000fd5b505050506040513d601f19601f820116820180604052508101906110aa91906131d0565b6001600160a01b0316146110ec5760405162461bcd60e51b81526020600482015260096024820152681393d517d3d5d3915160ba1b6044820152606401610b41565b60015460405163e985e9c560e01b81523360048201523060248201526001600160a01b039091169063e985e9c590604401602060405180830381865afa15801561113a573d6000803e3d6000fd5b505050506040513d601f19601f8201168201806040525081019061115e91906131ed565b806111e4575060015460405163020604bf60e21b81526001600160801b038616600482015230916001600160a01b03169063081812fc90602401602060405180830381865afa1580156111b5573d6000803e3d6000fd5b505050506040513d601f19601f820116820180604052508101906111d991906131d0565b6001600160a01b0316145b61121f5760405162461bcd60e51b815260206004820152600c60248201526b1393d517d054141493d5915160a21b6044820152606401610b41565b6001546040516323b872dd60e01b81523360048201523060248201526001600160801b03861660448201526001600160a01b03909116906323b872dd90606401600060405180830381600087803b15801561127957600080fd5b505af115801561128d573d6000803e3d6000fd5b505050506000604051806101200160405280336001600160a01b03168152602001856001600160801b0316815260200160001515815260200160001515815260200160006001600160a01b03168152602001600015158152602001600015158152602001600015158152602001846001600160a01b031681525090508060026000876001600160801b03166001600160801b0316815260200190815260200160002060008201518160000160006101000a8154816001600160a01b0302191690836001600160a01b0316021790555060208201518160010160006101000a8154816001600160801b0302191690836001600160801b0316021790555060408201518160010160106101000a81548160ff02191690831515021790555060608201518160010160116101000a81548160ff02191690831515021790555060808201518160020160006101000a8154816001600160a01b0302191690836001600160a01b0316021790555060a08201518160020160146101000a81548160ff02191690831515021790555060c08201518160020160156101000a81548160ff02191690831515021790555060e08201518160020160166101000a81548160ff0219169083151502179055506101008201518160030160006101000a8154816001600160a01b0302191690836001600160a01b03160217905550905050600e8590806001815401808255809150506001900390600052602060002090600291828204019190066010029091909190916101000a8154816001600160801b0302191690836001600160801b03160217905550336001600160a01b0316856001600160801b03167f09e64470cc3cb85571105697eda64b9277045d2041954b7593b320346d0f29738660405161152d91906001600160801b0391909116815260200190565b60405180910390a35050600f805460ff1916905550600192915050565b600f5460ff161561156d5760405162461bcd60e51b8152600401610b41906131a8565b600f805460ff191660019081179091556001600160801b038216600090815260026020526040902090810154600160801b900460ff166115df5760405162461bcd60e51b815260206004820152600d60248201526c2727aa2fa820aca2a22fa327a960991b6044820152606401610b41565b80546001600160a01b031633146116245760405162461bcd60e51b81526020600482015260096024820152682727aa2fa7aba722a960b91b6044820152606401610b41565b6002810154600160a01b900460ff166116745760405162461bcd60e51b8152602060048201526012602482015271109556515497d393d517d59154925192515160721b6044820152606401610b41565b6002810154600160a81b900460ff166116c55760405162461bcd60e51b815260206004820152601360248201527214d15313115497d393d517d591549251925151606a1b6044820152606401610b41565b6001810154600090600a906116e4906001600160801b0316600961320a565b6116ee9190613243565b60405190915060009033906001600160801b038416908381818185875af1925050503d806000811461173c576040519150601f19603f3d011682016040523d82523d6000602084013e611741565b606091505b50509050806117625760405162461bcd60e51b8152600401610b4190613269565b6001546002840154604051632142170760e11b81523060048201526001600160a01b0391821660248201526001600160801b03871660448201529116906342842e0e90606401600060405180830381600087803b1580156117c257600080fd5b505af11580156117d6573d6000803e3d6000fd5b505050506001600160801b0384811660008181526002602081815260409283902080546001600160a01b0319908116825560018201805471ffffffffffffffffffffffffffffffffffff1916905592810180546001600160b81b031916905560030180549092169091559051928516835233927f93e7dd2a1d95817daaebba1c9458b56d203d8a7bc5ed4c493b2c69acc9f07894910160405180910390a35050600f805460ff191690555050565b6001600160801b03811660009081526002602052604090206001810154600160801b900460ff166118ea5760405162461bcd60e51b815260206004820152601060248201526f5041594d454e545f4e4f545f4d41444560801b6044820152606401610b41565b60028101546001600160a01b031633148061190e575080546001600160a01b031633145b6119495760405162461bcd60e51b815260206004820152600c60248201526b1393d517d2539593d315915160a21b6044820152606401610b41565b6001600160801b03821660009081526006602052604090206003810154600160a01b900460ff161561198d5760405162461bcd60e51b8152600401610b4190613292565b6001600160801b038084166000818152600c6020526040812042905560078054600181810183559282905260028082047fa66cc928b5edb82af9bd49922954155ab7b0942694bea4ce44661d9a8736c6880180546010938616939093026101000a808702970219909216959095179055858401805460ff60b01b1916600160b01b17815585830180546001600160801b031916909417909355915492840180546001600160a01b03199081166001600160a01b0395861617909155855460038601805490921694169390931790925554611a679190613195565b81556002820154604051336001600160a01b03909216821480825291906001600160801b038616907f6f6fd7af658f7fe272ccf781986e7a9d4c3029e7067bb3d6a43c0fbb13652fcb906020015b60405180910390a350505050565b60007f00000000000000000000000000000000000000000000000000000000000000006001600160a01b03163314611b0d5760405162461bcd60e51b8152600401610b41906132bc565b5060045490565b600f5460009060ff1615611b3a5760405162461bcd60e51b8152600401610b41906131a8565b600f805460ff191660019081179091556001600160801b0380841660009081526002602052604090209182015416611ba45760405162461bcd60e51b815260206004820152600d60248201526c494e56414c49445f505249434560981b6044820152606401610b41565b8054336001600160a01b0390911603611bf65760405162461bcd60e51b815260206004820152601460248201527310d0539517d0955657d653d55497d41493d110d560621b6044820152606401610b41565b60018101546001600160801b0316341015611c445760405162461bcd60e51b815260206004820152600e60248201526d09c9ea8be8a9c9eaa8e90be8aa8960931b6044820152606401610b41565b60018101805460ff60801b198116600160801b179091556002820180546001600160a01b031916339081179091556040516001600160801b03928316815290918516907f559fc5bc8ed2bfe26d9c4c72e91c32b86465d9c5c043fb1df2414da482c4ad519060200160405180910390a35050600f805460ff1916905550600190565b60408051606081018252600080825260208201819052918101919091526001600160a01b038216611d2b5760405162461bcd60e51b815260206004820152600f60248201526e496e76616c6964206164647265737360881b6044820152606401610b41565b50604080516060810182526001600160a01b039092166000818152600860209081528382205460ff1615158552828252600b815283822054818601529181526009909152819020546001600160801b03169082015290565b600f5460ff1615611da65760405162461bcd60e51b8152600401610b41906131a8565b600f805460ff191660019081179091556001600160801b038316600090815260026020526040902090810154600160801b900460ff16611e185760405162461bcd60e51b815260206004820152600d60248201526c2727aa2fa820aca2a22fa327a960991b6044820152606401610b41565b8115611ece5760028101546001600160a01b03163314611e665760405162461bcd60e51b81526020600482015260096024820152682727aa2fa13abcb2b960b91b6044820152606401610b41565b6002810154600160a01b900460ff1615611eb45760405162461bcd60e51b815260206004820152600f60248201526e1053149150511657d0d21150d2d151608a1b6044820152606401610b41565b60028101805460ff60a01b1916600160a01b179055611f78565b80546001600160a01b03163314611f145760405162461bcd60e51b815260206004820152600a6024820152692727aa2fa9a2a62622a960b11b6044820152606401610b41565b6002810154600160a81b900460ff1615611f625760405162461bcd60e51b815260206004820152600f60248201526e1053149150511657d0d21150d2d151608a1b6044820152606401610b41565b60028101805460ff60a81b1916600160a81b1790555b604051821515815233906001600160801b038516907fbcaa63eb2e22c5280fb475efca4d82d5ba62fc379dcf1f2e0ad3e0fe314867f79060200160405180910390a35050600f805460ff1916905550565b600e8181548110611fd957600080fd5b9060005260206000209060029182820401919006601002915054906101000a90046001600160801b031681565b7f00000000000000000000000000000000000000000000000000000000000000006001600160a01b0316331461204e5760405162461bcd60e51b8152600401610b41906132bc565b6001546040805160608082526003908201526213919560ea1b60808201526001600160a01b03928316602082015291831682820152517fe1dfa83513a4b65c296bc64d8a68945cb723d798739225012d7167dbb2d6e3fc9181900360a00190a1600180546001600160a01b0319166001600160a01b0392909216919091179055565b6001600160801b03811660009081526006602052604090206003810154600160a01b900460ff16156121145760405162461bcd60e51b8152600401610b4190613292565b600554600482015410156121605760405162461bcd60e51b81526020600482015260136024820152724e4f545f454e4f5547485f52454f4c5645525360681b6044820152606401610b41565b6001600160801b0382166000908152600c60205260409020546121879062093a8090613117565b4211156121d65760405162461bcd60e51b815260206004820152601960248201527f5245534f4c5554494f4e5f504552494f445f45585049524544000000000000006044820152606401610b41565b60055460068201546121f29060ff6101008204811691166132e2565b60ff1610156122365760405162461bcd60e51b815260206004820152601060248201526f4e4f545f454e4f5547485f564f54455360801b6044820152606401610b41565b6001600160801b038083166000908152600260205260408120600101549091600a916122649116600961320a565b61226e9190613243565b6001600160801b038085166000908152600260205260408120600101549293509161229b918491166132fb565b600684015490915060ff6101008204811691161180156123a8576002848101546001600160801b03878116600090815260209390935260408084206001015490516001600160a01b03909316929116908381818185875af1925050503d8060008114612323576040519150601f19603f3d011682016040523d82523d6000602084013e612328565b606091505b50509050806123695760405162461bcd60e51b815260206004820152600d60248201526c14915195539117d19052531151609a1b6044820152606401610b41565b6001600160801b03808716600090815260026020526040812060010154600480549190931692919061239c908490613195565b90915550612494915050565b60038401546001600160801b0386811660009081526002602052604080822060010154905191936001600160a01b03169216908381818185875af1925050503d8060008114612413576040519150601f19603f3d011682016040523d82523d6000602084013e612418565b606091505b505090508061245a5760405162461bcd60e51b815260206004820152600e60248201526d1410565351539517d1905253115160921b6044820152606401610b41565b6001600160801b03808716600090815260026020526040812060010154600480549190931692919061248d908490613195565b9091555050505b6000805b6004860154811015612511578215158660050160008860040184815481106124c2576124c2613140565b60009182526020808320909101546001600160a01b0316835282019290925260400190205460ff161515036124ff57816124fb81613156565b9250505b8061250981613156565b915050612498565b506000811161255a5760405162461bcd60e51b81526020600482015260156024820152744e4f5f454c494749424c455f5245534f4c5645525360581b6044820152606401610b41565b600061256f826001600160801b038616613322565b905060005b600487015481101561264657600087600401828154811061259757612597613140565b60009182526020808320909101546001600160a01b031680835260058b0190915260409091205490915085151560ff90911615150361262a576001600160a01b038116600090815260096020526040812080548592906126019084906001600160801b0316613336565b92506101000a8154816001600160801b0302191690836001600160801b03160217905550612633565b61263381612c8f565b508061263e81613156565b915050612574565b5060038601805460ff60a01b1916600160a01b17905560068601546040516001600160801b038916917f6c6a8732e657ddd863bda916ae9f3e292befddeb279da3d3a18e7004ee5453be916126ac91610100810460ff9081169116111515815260200190565b60405180910390a250505050505050565b60078181548110611fd957600080fd5b60606000836001600160801b031667ffffffffffffffff8111156126f3576126f361312a565b60405190808252806020026020018201604052801561271c578160200160208202803683370190505b5090506000805b600e546001600160801b0382161015610d7357856001600160801b0316816001600160801b03161015610d7357600060026000600e846001600160801b03168154811061277257612772613140565b6000918252602080832060028084049091015460019093166010026101000a9092046001600160801b0316845283019390935260409091019020908101549091506001600160a01b0387811691160361284257600e826001600160801b0316815481106127e1576127e1613140565b90600052602060002090600291828204019190066010029054906101000a90046001600160801b031684848151811061281c5761281c613140565b6001600160801b03909216602092830291909101909101528261283e81613156565b9350505b508061284d8161316f565b915050612723565b60007f00000000000000000000000000000000000000000000000000000000000000006001600160a01b0316331461289f5760405162461bcd60e51b8152600401610b41906132bc565b5060035490565b33600090815260086020526040902054829060ff166128d75760405162461bcd60e51b8152600401610b41906132bc565b6001600160801b038116600090815260066020908152604080832033845260050190915290205460ff161561293e5760405162461bcd60e51b815260206004820152600d60248201526c1053149150511657d593d51151609a1b6044820152606401610b41565b6001600160801b03831660009081526006602052604090206003810154600160a01b900460ff16156129825760405162461bcd60e51b8152600401610b4190613292565b6001600160801b0384166000908152600d6020908152604080832033845290915290205460ff16156129e65760405162461bcd60e51b815260206004820152600d60248201526c1053149150511657d593d51151609a1b6044820152606401610b41565b33600081815260058301602090815260408220805460ff19168715801591909117909155600485018054600181018255908452919092200180546001600160a01b031916909217909155612a675760068101805460ff16906000612a4983613356565b91906101000a81548160ff021916908360ff16021790555050612a9b565b600681018054610100900460ff16906001612a8183613356565b91906101000a81548160ff021916908360ff160217905550505b6001600160801b0384166000818152600d602090815260408083203380855290835292819020805460ff191660011790555186151581529192917fa2c24c15b2049e14a4f9a083a8a5b576cf9960ddbedbd13a4c08ad921ca497d19101611ab5565b600f5460ff1615612b205760405162461bcd60e51b8152600401610b41906131a8565b600f805460ff191660011790553360009081526008602052604090205460ff16612b5c5760405162461bcd60e51b8152600401610b41906132bc565b336000908152600960205260409020546001600160801b031680612bb85760405162461bcd60e51b81526020600482015260136024820152724e4f5f5245574152445f415641494c41424c4560681b6044820152606401610b41565b3360008181526009602052604080822080546001600160801b0319169055519091906001600160801b038416908381818185875af1925050503d8060008114612c1d576040519150601f19603f3d011682016040523d82523d6000602084013e612c22565b606091505b5050905080612c435760405162461bcd60e51b8152600401610b4190613269565b6040516001600160801b038316815233907ffca7b1a530dd69bc597e6fed3c391752f532d6f1372382442defed7f779416fd9060200160405180910390a25050600f805460ff19169055565b6001600160a01b03811660009081526008602052604090205460ff16612cc75760405162461bcd60e51b8152600401610b41906132bc565b6001600160a01b0381166000908152600b6020526040812054612cec90600290613322565b6001600160a01b0383166000908152600b6020526040812080549293508392909190612d19908490613195565b90915550506040516000906001600160a01b037f0000000000000000000000000000000000000000000000000000000000000000169083908381818185875af1925050503d8060008114612d89576040519150601f19603f3d011682016040523d82523d6000602084013e612d8e565b606091505b5050905080612daf5760405162461bcd60e51b8152600401610b4190613269565b8160036000828254612dc19190613117565b9091555050505050565b600060208083528351808285015260005b81811015612df857858101830151858201604001528201612ddc565b506000604082860101526040601f19601f8301168501019250505092915050565b80356001600160801b0381168114612e3057600080fd5b919050565b6001600160a01b0381168114612e4a57600080fd5b50565b60008060408385031215612e6057600080fd5b612e6983612e19565b91506020830135612e7981612e35565b809150509250929050565b6020808252825182820181905260009190848201906040850190845b81811015612ec55783516001600160801b031683529284019291840191600101612ea0565b50909695505050505050565b600060208284031215612ee357600080fd5b612eec82612e19565b9392505050565b60008060408385031215612f0657600080fd5b50508035926020909101359150565b6020808252825182820181905260009190848201906040850190845b81811015612ec557835183529284019291840191600101612f31565b600060208284031215612f5f57600080fd5b8135612eec81612e35565b600080600060608486031215612f7f57600080fd5b612f8884612e19565b9250612f9660208501612e19565b91506040840135612fa681612e35565b809150509250925092565b81516001600160a01b031681526020808301516001600160801b031690820152604080830151610120830191612fea9084018215159052565b506060830151612ffe606084018215159052565b50608083015161301960808401826001600160a01b03169052565b5060a083015161302d60a084018215159052565b5060c083015161304160c084018215159052565b5060e083015161305560e084018215159052565b50610100838101516001600160a01b038116848301525b505092915050565b8015158114612e4a57600080fd5b6000806040838503121561309557600080fd5b61309e83612e19565b91506020830135612e7981613074565b6000602082840312156130c057600080fd5b5035919050565b600181811c908216806130db57607f821691505b6020821081036130fb57634e487b7160e01b600052602260045260246000fd5b50919050565b634e487b7160e01b600052601160045260246000fd5b80820180821115610d7957610d79613101565b634e487b7160e01b600052604160045260246000fd5b634e487b7160e01b600052603260045260246000fd5b60006001820161316857613168613101565b5060010190565b60006001600160801b0380831681810361318b5761318b613101565b6001019392505050565b81810381811115610d7957610d79613101565b6020808252600e908201526d4e6f2072652d656e7472616e637960901b604082015260600190565b6000602082840312156131e257600080fd5b8151612eec81612e35565b6000602082840312156131ff57600080fd5b8151612eec81613074565b6001600160801b0381811683821602808216919082811461306c5761306c613101565b634e487b7160e01b600052601260045260246000fd5b60006001600160801b038084168061325d5761325d61322d565b92169190910492915050565b6020808252600f908201526e1514905394d1915497d19052531151608a1b604082015260600190565b60208082526010908201526f1053149150511657d49154d3d315915160821b604082015260600190565b6020808252600c908201526b2727aa2fa922a9a7a62b22a960a11b604082015260600190565b60ff8181168382160190811115610d7957610d79613101565b6001600160801b0382811682821603908082111561331b5761331b613101565b5092915050565b6000826133315761333161322d565b500490565b6001600160801b0381811683821601908082111561331b5761331b613101565b600060ff821660ff810361336c5761336c613101565b6001019291505056fea2646970667358221220e2bd5097aaee630dd403677aeff2339bec61be9d298457739c869c49e1683b9864736f6c63430008140033",
    "devdoc": {
        "kind": "dev",
        "methods": {},
        "version": 1
    },
    "userdoc": {
        "kind": "user",
        "methods": {},
        "version": 1
    },
    "storageLayout": {
        "storage": [
            {
                "astId": 3754,
                "contract": "contracts/CropMarketplace.sol:CropMarketplace",
                "label": "name",
                "offset": 0,
                "slot": "0",
                "type": "t_string_storage"
            },
            {
                "astId": 3757,
                "contract": "contracts/CropMarketplace.sol:CropMarketplace",
                "label": "nft",
                "offset": 0,
                "slot": "1",
                "type": "t_contract(CropNft)5501"
            },
            {
                "astId": 3762,
                "contract": "contracts/CropMarketplace.sol:CropMarketplace",
                "label": "assets",
                "offset": 0,
                "slot": "2",
                "type": "t_mapping(t_uint128,t_struct(AssetData)3826_storage)"
            },
            {
                "astId": 3765,
                "contract": "contracts/CropMarketplace.sol:CropMarketplace",
                "label": "totalGovernanceToken",
                "offset": 0,
                "slot": "3",
                "type": "t_uint256"
            },
            {
                "astId": 3768,
                "contract": "contracts/CropMarketplace.sol:CropMarketplace",
                "label": "totalMarketToken",
                "offset": 0,
                "slot": "4",
                "type": "t_uint256"
            },
            {
                "astId": 3771,
                "contract": "contracts/CropMarketplace.sol:CropMarketplace",
                "label": "minResolvers",
                "offset": 0,
                "slot": "5",
                "type": "t_uint256"
            },
            {
                "astId": 3776,
                "contract": "contracts/CropMarketplace.sol:CropMarketplace",
                "label": "disputes",
                "offset": 0,
                "slot": "6",
                "type": "t_mapping(t_uint128,t_struct(Dispute)3848_storage)"
            },
            {
                "astId": 3779,
                "contract": "contracts/CropMarketplace.sol:CropMarketplace",
                "label": "disputeIds",
                "offset": 0,
                "slot": "7",
                "type": "t_array(t_uint128)dyn_storage"
            },
            {
                "astId": 3783,
                "contract": "contracts/CropMarketplace.sol:CropMarketplace",
                "label": "isResolver",
                "offset": 0,
                "slot": "8",
                "type": "t_mapping(t_address,t_bool)"
            },
            {
                "astId": 3787,
                "contract": "contracts/CropMarketplace.sol:CropMarketplace",
                "label": "resolverReward",
                "offset": 0,
                "slot": "9",
                "type": "t_mapping(t_address,t_uint128)"
            },
            {
                "astId": 3790,
                "contract": "contracts/CropMarketplace.sol:CropMarketplace",
                "label": "resolverStakeRequirement",
                "offset": 0,
                "slot": "10",
                "type": "t_uint256"
            },
            {
                "astId": 3794,
                "contract": "contracts/CropMarketplace.sol:CropMarketplace",
                "label": "resolverStake",
                "offset": 0,
                "slot": "11",
                "type": "t_mapping(t_address,t_uint256)"
            },
            {
                "astId": 3801,
                "contract": "contracts/CropMarketplace.sol:CropMarketplace",
                "label": "disputeStartTime",
                "offset": 0,
                "slot": "12",
                "type": "t_mapping(t_uint128,t_uint256)"
            },
            {
                "astId": 3807,
                "contract": "contracts/CropMarketplace.sol:CropMarketplace",
                "label": "hasVoted",
                "offset": 0,
                "slot": "13",
                "type": "t_mapping(t_uint128,t_mapping(t_address,t_bool))"
            },
            {
                "astId": 3920,
                "contract": "contracts/CropMarketplace.sol:CropMarketplace",
                "label": "assetIds",
                "offset": 0,
                "slot": "14",
                "type": "t_array(t_uint128)dyn_storage"
            },
            {
                "astId": 3922,
                "contract": "contracts/CropMarketplace.sol:CropMarketplace",
                "label": "locked",
                "offset": 0,
                "slot": "15",
                "type": "t_bool"
            }
        ],
        "types": {
            "t_address": {
                "encoding": "inplace",
                "label": "address",
                "numberOfBytes": "20"
            },
            "t_array(t_address)dyn_storage": {
                "base": "t_address",
                "encoding": "dynamic_array",
                "label": "address[]",
                "numberOfBytes": "32"
            },
            "t_array(t_uint128)dyn_storage": {
                "base": "t_uint128",
                "encoding": "dynamic_array",
                "label": "uint128[]",
                "numberOfBytes": "32"
            },
            "t_bool": {
                "encoding": "inplace",
                "label": "bool",
                "numberOfBytes": "1"
            },
            "t_contract(CropNft)5501": {
                "encoding": "inplace",
                "label": "contract CropNft",
                "numberOfBytes": "20"
            },
            "t_mapping(t_address,t_bool)": {
                "encoding": "mapping",
                "key": "t_address",
                "label": "mapping(address => bool)",
                "numberOfBytes": "32",
                "value": "t_bool"
            },
            "t_mapping(t_address,t_uint128)": {
                "encoding": "mapping",
                "key": "t_address",
                "label": "mapping(address => uint128)",
                "numberOfBytes": "32",
                "value": "t_uint128"
            },
            "t_mapping(t_address,t_uint256)": {
                "encoding": "mapping",
                "key": "t_address",
                "label": "mapping(address => uint256)",
                "numberOfBytes": "32",
                "value": "t_uint256"
            },
            "t_mapping(t_uint128,t_mapping(t_address,t_bool))": {
                "encoding": "mapping",
                "key": "t_uint128",
                "label": "mapping(uint128 => mapping(address => bool))",
                "numberOfBytes": "32",
                "value": "t_mapping(t_address,t_bool)"
            },
            "t_mapping(t_uint128,t_struct(AssetData)3826_storage)": {
                "encoding": "mapping",
                "key": "t_uint128",
                "label": "mapping(uint128 => struct CropMarketplace.AssetData)",
                "numberOfBytes": "32",
                "value": "t_struct(AssetData)3826_storage"
            },
            "t_mapping(t_uint128,t_struct(Dispute)3848_storage)": {
                "encoding": "mapping",
                "key": "t_uint128",
                "label": "mapping(uint128 => struct CropMarketplace.Dispute)",
                "numberOfBytes": "32",
                "value": "t_struct(Dispute)3848_storage"
            },
            "t_mapping(t_uint128,t_uint256)": {
                "encoding": "mapping",
                "key": "t_uint128",
                "label": "mapping(uint128 => uint256)",
                "numberOfBytes": "32",
                "value": "t_uint256"
            },
            "t_string_storage": {
                "encoding": "bytes",
                "label": "string",
                "numberOfBytes": "32"
            },
            "t_struct(AssetData)3826_storage": {
                "encoding": "inplace",
                "label": "struct CropMarketplace.AssetData",
                "members": [
                    {
                        "astId": 3809,
                        "contract": "contracts/CropMarketplace.sol:CropMarketplace",
                        "label": "owner",
                        "offset": 0,
                        "slot": "0",
                        "type": "t_address"
                    },
                    {
                        "astId": 3811,
                        "contract": "contracts/CropMarketplace.sol:CropMarketplace",
                        "label": "price",
                        "offset": 0,
                        "slot": "1",
                        "type": "t_uint128"
                    },
                    {
                        "astId": 3813,
                        "contract": "contracts/CropMarketplace.sol:CropMarketplace",
                        "label": "payedFor",
                        "offset": 16,
                        "slot": "1",
                        "type": "t_bool"
                    },
                    {
                        "astId": 3815,
                        "contract": "contracts/CropMarketplace.sol:CropMarketplace",
                        "label": "booked",
                        "offset": 17,
                        "slot": "1",
                        "type": "t_bool"
                    },
                    {
                        "astId": 3817,
                        "contract": "contracts/CropMarketplace.sol:CropMarketplace",
                        "label": "buyer",
                        "offset": 0,
                        "slot": "2",
                        "type": "t_address"
                    },
                    {
                        "astId": 3819,
                        "contract": "contracts/CropMarketplace.sol:CropMarketplace",
                        "label": "buyerChecked",
                        "offset": 20,
                        "slot": "2",
                        "type": "t_bool"
                    },
                    {
                        "astId": 3821,
                        "contract": "contracts/CropMarketplace.sol:CropMarketplace",
                        "label": "sellerChecked",
                        "offset": 21,
                        "slot": "2",
                        "type": "t_bool"
                    },
                    {
                        "astId": 3823,
                        "contract": "contracts/CropMarketplace.sol:CropMarketplace",
                        "label": "disputed",
                        "offset": 22,
                        "slot": "2",
                        "type": "t_bool"
                    },
                    {
                        "astId": 3825,
                        "contract": "contracts/CropMarketplace.sol:CropMarketplace",
                        "label": "store",
                        "offset": 0,
                        "slot": "3",
                        "type": "t_address"
                    }
                ],
                "numberOfBytes": "128"
            },
            "t_struct(Dispute)3848_storage": {
                "encoding": "inplace",
                "label": "struct CropMarketplace.Dispute",
                "members": [
                    {
                        "astId": 3828,
                        "contract": "contracts/CropMarketplace.sol:CropMarketplace",
                        "label": "id",
                        "offset": 0,
                        "slot": "0",
                        "type": "t_uint256"
                    },
                    {
                        "astId": 3830,
                        "contract": "contracts/CropMarketplace.sol:CropMarketplace",
                        "label": "nftId",
                        "offset": 0,
                        "slot": "1",
                        "type": "t_uint128"
                    },
                    {
                        "astId": 3832,
                        "contract": "contracts/CropMarketplace.sol:CropMarketplace",
                        "label": "buyer",
                        "offset": 0,
                        "slot": "2",
                        "type": "t_address"
                    },
                    {
                        "astId": 3834,
                        "contract": "contracts/CropMarketplace.sol:CropMarketplace",
                        "label": "seller",
                        "offset": 0,
                        "slot": "3",
                        "type": "t_address"
                    },
                    {
                        "astId": 3836,
                        "contract": "contracts/CropMarketplace.sol:CropMarketplace",
                        "label": "resolved",
                        "offset": 20,
                        "slot": "3",
                        "type": "t_bool"
                    },
                    {
                        "astId": 3839,
                        "contract": "contracts/CropMarketplace.sol:CropMarketplace",
                        "label": "resolvers",
                        "offset": 0,
                        "slot": "4",
                        "type": "t_array(t_address)dyn_storage"
                    },
                    {
                        "astId": 3843,
                        "contract": "contracts/CropMarketplace.sol:CropMarketplace",
                        "label": "votes",
                        "offset": 0,
                        "slot": "5",
                        "type": "t_mapping(t_address,t_bool)"
                    },
                    {
                        "astId": 3845,
                        "contract": "contracts/CropMarketplace.sol:CropMarketplace",
                        "label": "buyerVotes",
                        "offset": 0,
                        "slot": "6",
                        "type": "t_uint8"
                    },
                    {
                        "astId": 3847,
                        "contract": "contracts/CropMarketplace.sol:CropMarketplace",
                        "label": "sellerVotes",
                        "offset": 1,
                        "slot": "6",
                        "type": "t_uint8"
                    }
                ],
                "numberOfBytes": "224"
            },
            "t_uint128": {
                "encoding": "inplace",
                "label": "uint128",
                "numberOfBytes": "16"
            },
            "t_uint256": {
                "encoding": "inplace",
                "label": "uint256",
                "numberOfBytes": "32"
            },
            "t_uint8": {
                "encoding": "inplace",
                "label": "uint8",
                "numberOfBytes": "1"
            }
        }
    }
}